:100000000C942A000C9434000C9434000C943400AA
:100010000C9434000C9434000C9434000C94340090
:100020000C9434000C9434000C9434000C94340080
:100030000C9434000C9434000C9434000C94340070
:100040000C9434000C9434000C9434000C94340060
:100050000C94340011241FBECFE5D4E0DEBFCDBF29
:100060000E9436000C9449000C9400008FEF8ABB6C
:1000700087BB40E824E234EF4BBBC9010197F1F79D
:100080008BB388BB1BBAC9010197F1F78BB388BB4F
:06009000F3CFF894FFCF4E
:00000001FF
