:100000000C942A000C9447000C9447000C94470071
:100010000C9447000C9447000C9447000C94470044
:100020000C9447000C9447000C9447000C94470034
:100030000C9447000C9447000C9447000C94470024
:100040000C9447000C9447000C9447000C94470014
:100050000C94470011241FBECFE5D4E0DEBFCDBF16
:1000600010E0A0E6B0E0EAE7F3E002C005900D92F0
:10007000AA38B107D9F710E0AAE8B0E001C01D9294
:10008000AA38B107E1F70E9407010C94BB010C9458
:10009000000082BB90989198929A8AEF90E0019725
:1000A000F1F7929808959C01207F307022BB9098C0
:1000B0009198929A2AEF30E0F9013197F1F79298EE
:1000C00044E0880F991F4A95E1F7907082BB9098A1
:1000D0009198929AC9010197F1F79298089582E058
:1000E00090E00E94530088E290E00E9453008CE070
:1000F00090E00E94530086E090E00E945300089533
:1001000082BB909A9198929A8AEF90E00197F1F7CA
:10011000929808959C01207F307022BB909A91980C
:10012000929A2AEF30E0F9013197F1F7929854E072
:10013000880F991F5A95E1F7907082BB909A919819
:10014000929AC9010197F1F792980895CF93DF939E
:10015000EC0184E090E00E9453000EC0CE016AE002
:1001600070E00E949401C0960E948A00CE016AE06D
:1001700070E00E949401EB01209781F786E090E007
:100180000E945300DF91CF910895CF93DF93EC014C
:1001900003C090E00E948A0089918823D1F7DF9103
:1001A000CF9108958EE088BBC89914C0C89BFECF3C
:1001B00080E890E00E94530080E690E00E94C50035
:1001C00080E197E229E130E0F9013197F1F70197F9
:1001D000D9F719C0C99916C0C99BFECF80E890E035
:1001E0000E94530082E690E00E94C50080E197E201
:1001F00029E130E0F9013197F1F70197D9F722E0D1
:1002000030E003C0089521E030E0C9010895EF9285
:10021000FF920F931F93CF93DF938FEF87BB1ABA91
:1002200081BB8FE08BBB0E946F0082E890E00E9450
:10023000530084E690E00E94C50080E197E229E146
:1002400030E0F9013197F1F70197D9F70E94D20018
:100250008130910509F054C080EC90E00E94530079
:100260008FE690E00E94C50086EC90E00E9453006B
:1002700086E790E00E94C500EE24FF243EC08DEC8E
:1002800090E00E945300CE010E94A6008AEC90E00C
:100290000E945300C8010E94A60087EC90E00E94D3
:1002A0005300C7010E94A6000E94D200029789F461
:1002B00080EC90E00E9453008FE790E00E94C50020
:1002C00080EC90E00E94530085E890E00E94C50019
:1002D000BDCF2196CC33D10591F60F5F1F4F0C3364
:1002E000110519F0C0E0D0E0CACF0894E11CF11C60
:1002F0008CE0E816F10409F4A9CF00E010E0F2CF99
:10030000029709F0A3CF80EC90E00E94530085E8AB
:1003100090E00E94C50080E090E0DF91CF911F91B6
:100320000F91FF90EF90089597FB092E07260AD0B2
:1003300077FD04D00CD006D000201AF4709561959A
:100340007F4F0895F6F7909581959F4F0895AA1BCA
:10035000BB1B51E107C0AA1FBB1FA617B70710F0B0
:10036000A61BB70B881F991F5A95A9F780959095E2
:0A037000BC01CD010895F894FFCF01
:10037A003100320053746F70205761746368005300
:10038A0074617274200030303A30303A30300020D4
:0A039A00202020200053746F700033
:00000001FF
