:100000000C942A000C943F000C943F000C943F0089
:100010000C943F000C943F000C943F000C943F0064
:100020000C943F000C943F000C943F000C943F0054
:100030000C943F000C943F000C943F000C943F0044
:100040000C943F000C943F000C943F000C943F0034
:100050000C943F0011241FBECFE5D4E0DEBFCDBF1E
:1000600010E0A0E6B0E0EAE6F2E002C005900D92F2
:10007000A837B107D9F70E94B8000C9433010C944B
:10008000000082BB90989198929A8AEF90E0019735
:10009000F1F7929808950F931F938C01807F9070D1
:1000A0000E94410084E0000F111F8A95E1F7C8010A
:1000B00090700E9441001F910F91089582E090E09E
:1000C0000E944B0088E290E00E944B008CE090E0A0
:1000D0000E944B0086E090E00E944B00089582BB96
:1000E000909A9198929A8AEF90E00197F1F79298FE
:1000F00008950F931F938C01807F90700E946F0072
:1001000094E0000F111F9A95E1F7C80190700E94CA
:100110006F001F910F9108950F931F938C0184E03E
:1001200090E00E944B00C8016AE070E00E940C0160
:10013000C0960E947900C8016AE070E00E940C013C
:10014000CB016AE070E00E940C01C0960E94790029
:100150001F910F910895CF93DF93EC0103C090E0BE
:100160000E94790089918823D1F7DF91CF9108957A
:10017000CF92DF92EF92FF920F931F93CF93DF9373
:100180008FEF81BB0E945E0082E890E00E944B00EE
:1001900080E690E00E94AB0029E1C22ED12C84ECD5
:1001A00090E00E944B008EE690E00E94AB00EE24AF
:1001B000FF242FC08BEC90E00E944B00CE010E94E8
:1001C0008C0088EC90E00E944B00C8010E948C00DB
:1001D00085EC90E00E944B00C7010E948C0080E1FA
:1001E00097E2F6013197F1F70197D9F72196CC33D1
:1001F000D10501F70F5F1F4F0C33110519F0C0E057
:10020000D0E0D8CF0894E11CF11C8CE0E816F10492
:1002100031F200E010E0F3CF97FB092E07260AD059
:1002200077FD04D00CD006D000201AF470956195AB
:100230007F4F0895F6F7909581959F4F0895AA1BDB
:10024000BB1B51E107C0AA1FBB1FA617B70710F0C1
:10025000A61BB70B881F991F5A95A9F780959095F3
:0A026000BC01CD010895F894FFCF12
:10026A004469676974616C20436C6F636B0030305A
:08027A003A30303A3030000048
:00000001FF
