:100000000C9446000C945D000C945D000C945D0013
:100010000C945D000C945D000C945D000C945D00EC
:100020000C945D000C945D000C945D000C945D00DC
:100030000C945D000C945D000C945D000C945D00CC
:100040000C945D000C945D000C945D000C945D00BC
:100050000C945D000C945D000C945D000C945D00AC
:100060000C945D000C945D000C945D000C945D009C
:100070000C945D000C945D000C945D000C945D008C
:100080000C945D000C945D000C945D0011241FBE67
:10009000CFEFD0E1DEBFCDBF11E0A0E0B1E0E0E006
:1000A000F1E000E00BBF02C007900D92A030B10755
:1000B000D9F70E945F000C947E000C9400008FEF33
:1000C0008ABB61E049E150E06BBB88E893E1FA014B
:1000D0003197F1F70197D9F720E030E08BB3880F23
:1000E0008BBB88E893E1FA013197F1F70197D9F7D3
:1000F0002F5F3F4F2730310589F7E6CFF894FFCFC8
:00000001FF
