:100000000C942A000C943F000C943F000C943F0089
:100010000C943F000C943F000C943F000C943F0064
:100020000C943F000C943F000C943F000C943F0054
:100030000C943F000C943F000C943F000C943F0044
:100040000C943F000C943F000C943F000C943F0034
:100050000C943F0011241FBECFE5D4E0DEBFCDBF1E
:1000600010E0A0E6B0E0EEEBF1E002C005900D92EA
:10007000A636B107D9F70E9499000C94DD000C94C4
:10008000000082BB90989198929A8AEF90E0019735
:10009000F1F7929808950F931F938C01807F9070D1
:1000A0000E94410084E0000F111F8A95E1F7C8010A
:1000B00090700E9441001F910F91089582E090E09E
:1000C0000E944B0088E290E00E944B008CE090E0A0
:1000D0000E944B0086E090E00E944B00089582BB96
:1000E000909A9198929A8AEF90E00197F1F79298FE
:1000F00008950F931F938C01807F90700E946F0072
:1001000094E0000F111F9A95E1F7C80190700E94CA
:100110006F001F910F910895CF93DF93EC0103C0FF
:1001200090E00E94790089918823D1F7DF91CF91E7
:100130000895EF92FF920F931F93CF93DF938FEF6A
:1001400081BB0E945E00C0E0D0E020E5E22E23ECFF
:10015000F22E04ED10E314C0CE0180589F4F0E9490
:100160004B0080E690E00E948C00C7010197F1F7F8
:1001700081E090E00E944B00C8010197F1F72196C1
:10018000CC30D1054CF3CBECD0E0CE010E944B003B
:1001900080E690E00E948C00C7010197F1F781E0B2
:1001A00090E00E944B00C8010197F1F72197CF3BE7
:0E01B000D10559F7C0E0D0E0E3CFF894FFCFBF
:0601BE00436C6F636B004F
:00000001FF
