:100000000C942A000C9434000C9434000C943400AA
:100010000C9434000C9434000C9434000C94340090
:100020000C9434000C9434000C9434000C94340080
:100030000C9434000C9434000C9434000C94340070
:100040000C9434000C9434000C9434000C94340060
:100050000C94340011241FBECFE5D4E0DEBFCDBF29
:100060000E9436000C9450000C9400008FE087BB77
:100070001ABA49E031E028E089B390E083709070CB
:100080008330910511F448BBF7CF8130910511F40D
:1000900028BBF2CF029711F438BBEECF18BAECCFE1
:0400A000F894FFCF02
:00000001FF
