:100000000C942A000C943F000C943F000C943F0089
:100010000C943F000C943F000C943F000C943F0064
:100020000C943F000C943F000C943F000C943F0054
:100030000C943F000C943F000C943F000C943F0044
:100040000C943F000C943F000C943F000C943F0034
:100050000C943F0011241FBECFE5D4E0DEBFCDBF1E
:1000600010E0A0E6B0E0EAEDF2E002C005900D92EB
:10007000A837B107D9F70E94B8000C946B010C9413
:10008000000082BB90989198929A8AEF90E0019735
:10009000F1F7929808950F931F938C01807F9070D1
:1000A0000E94410084E0000F111F8A95E1F7C8010A
:1000B00090700E9441001F910F91089582E090E09E
:1000C0000E944B0088E290E00E944B008CE090E0A0
:1000D0000E944B0086E090E00E944B00089582BB96
:1000E000909A9198929A8AEF90E00197F1F79298FE
:1000F00008950F931F938C01807F90700E946F0072
:1001000094E0000F111F9A95E1F7C80190700E94CA
:100110006F001F910F9108950F931F938C0184E03E
:1001200090E00E944B00C8016AE070E00E94440128
:10013000C0960E947900C8016AE070E00E94440104
:10014000CB016AE070E00E944401C0960E947900F1
:100150001F910F910895CF93DF93EC0103C090E0BE
:100160000E94790089918823D1F7DF91CF9108957A
:100170000F931F93CF93DF931ABA8FEF81BB8FE05A
:1001800087BB0E945E0080E890E00E944B0080E602
:1001900090E00E94AB0088E893E129E130E0F901AA
:1001A0003197F1F70197D9F781E090E00E944B0079
:1001B00084ED90E30197F1F7C0E0D0E040E050E03B
:1001C00020E030E004ED10E302C020E030E089B32D
:1001D00090E0837090700097D1F38230910519F40C
:1001E00041E050E004C0019711F421E030E0C89BE9
:1001F00026C04130510519F040E050E020C0C899B8
:10020000FECF219681E090E00E944B00C80101974B
:10021000F1F781E890E00E944B0080E790E00E94B7
:10022000AB0089EC90E00E944B00CE010E948C0054
:10023000C8010197F1F740E050E020E030E0C99BB1
:10024000C6CF2130310509F0C0CFC999FECF219723
:1002500081E090E00E944B00C8010197F1F781E82E
:1002600090E00E944B0080E790E00E94AB0089EC98
:1002700090E00E944B00CE010E948C00C8010197C3
:10028000F1F740E050E0A1CF97FB092E07260AD0F6
:1002900077FD04D00CD006D000201AF4709561953B
:1002A0007F4F0895F6F7909581959F4F0895AA1B6B
:1002B000BB1B51E107C0AA1FBB1FA617B70710F051
:1002C000A61BB70B881F991F5A95A9F78095909583
:0A02D000BC01CD010895F894FFCFA2
:1002DA0056697369746F7220436F756E7465720024
:0802EA0050656F706C650000A7
:00000001FF
