:100000000C942A000C9447000C9447000C94470071
:100010000C9447000C9447000C9447000C94470044
:100020000C9447000C9447000C9447000C94470034
:100030000C9447000C9447000C9447000C94470024
:100040000C9447000C9447000C9447000C94470014
:100050000C94470011241FBECFE5D4E0DEBFCDBF16
:1000600010E0A0E6B0E0E6E7F4E002C005900D92F3
:10007000A036B107D9F710E0A0E6B0E001C01D92AC
:10008000A036B107E1F70E944B010C9439020C94A1
:10009000000037E02BE09DE08EE038BBC89905C03A
:1000A000C89BFECF27E030E06BC0C99905C0C99B53
:1000B000FECF24E030E064C0CA9905C0CA9BFECFE1
:1000C00021E030E05DC0CB9905C0CB9BFECF2BE09B
:1000D00030E056C028BBC89905C0C89BFECF28E0B9
:1000E00030E04EC0C99905C0C99BFECF25E030E085
:1000F00047C0CA9905C0CA9BFECF22E030E040C08D
:10010000CB9905C0CB9BFECF20E030E039C098BB37
:10011000C89905C0C89BFECF29E030E031C0C9991D
:1001200005C0C99BFECF26E030E02AC0CA9905C0B1
:10013000CA9BFECF23E030E023C0CB9905C0CB9B08
:10014000FECF2CE030E01CC088BBC89905C0C89B1E
:10015000FECF2DE030E014C0C99905C0C99BFECF89
:100160002EE030E00DC0CA9905C0CA9BFECF2FE03B
:1001700030E006C0CB9991CFCB9BFECF20E130E0A1
:10018000C901089582BB90989198929A8AEF90E065
:100190000197F1F7929808959C01207F307022BB5F
:1001A00090989198929A2AEF30E0F9013197F1F7FF
:1001B000929844E0880F991F4A95E1F7907082BBAE
:1001C00090989198929AC9010197F1F792980895A1
:1001D00082E090E00E94CC0088E290E00E94CC0097
:1001E0008CE090E00E94CC0086E090E00E94CC0081
:1001F000089582BB909A9198929A8AEF90E0019725
:10020000F1F7929808959C01207F307022BB909A5C
:100210009198929A2AEF30E0F9013197F1F792988C
:1002200054E0880F991F5A95E1F7907082BB909A1D
:100230009198929AC9010197F1F792980895CF93F6
:10024000DF93EC0184E090E00E94CC000EC0CE0170
:100250006AE070E00E941202C0960E940301CE0183
:100260006AE070E00E941202EB01209781F786E0BD
:1002700090E00E94CC00DF91CF910895CF93DF935F
:10028000EC0103C090E00E94030189918823D1F71B
:10029000DF91CF9108951F93CF93DF931ABA8FEF19
:1002A00081BB1FE017BB0E94E8001BBB0E944900F6
:1002B000EC018730910549F480E890E00E94030149
:1002C00087E390E00E94030124C08430910549F443
:1002D00080E890E00E94030184E390E00E94030123
:1002E00024C08130910549F480E890E00E94030128
:1002F00081E390E00E94030124C08B30910549F412
:1003000080E890E00E94030181E090E00E94CC0030
:100310002FC0C830D10549F480E890E00E94030165
:1003200088E390E00E94030123C0C530D10549F461
:1003300080E890E00E94030185E390E00E940301C1
:1003400023C0C230D10549F480E890E00E94030147
:1003500082E390E00E94030123C0209749F480E8E3
:1003600090E00E94030180E390E00E94030124C01A
:10037000C930D10549F480E890E00E94030189E387
:1003800090E00E94030124C0C630D10549F480E802
:1003900090E00E94030186E390E00E94030122C0E6
:1003A000C330D10549F480E890E00E94030183E363
:1003B00090E00E94030120C0CC30D10549F480E8D0
:1003C00090E00E9403018DE390E00E9403011EC0B3
:1003D000CD30D10539F480E890E00E9403018FE22E
:1003E00090E01DC0CE30D10539F480E890E00E9445
:1003F000030188E790E013C0CF30D10539F480E8DD
:1004000090E00E9403018DE290E009C0609709F03E
:100410004DCF80E890E00E9403018BE290E00E94C3
:10042000030144CF97FB092E07260AD077FD04D09D
:100430000CD006D000201AF4709561957F4F089576
:10044000F6F7909581959F4F0895AA1BBB1B51E12C
:1004500007C0AA1FBB1FA617B70710F0A61BB70B34
:10046000881F991F5A95A9F780959095BC01CD01D9
:060470000895F894FFCF8F
:00000001FF
