:100000000C942A000C943C000C943C000C943C0092
:100010000C943C000C943C000C943C000C943C0070
:100020000C943C000C9447000C943C000C943C0055
:100030000C943C000C943C000C943C000C943C0050
:100040000C943C000C943C000C943C000C943C0040
:100050000C943C0011241FBECFE5D4E0DEBFCDBF21
:1000600010E0A0E6B0E001C01D92A236B107E1F7B2
:100070000E943E000C9467000C94000078948FEF6F
:1000800087BB8ABB83E083BF81E089BFFFCF1F921C
:100090000F920FB60F9211248F939F93809160005F
:1000A0009091610001969093610080936000449765
:1000B00039F488B3809588BB10926100109260007B
:1000C0009F918F910F900FBE0F901F901895F894ED
:0200D000FFCF60
:00000001FF
