:100000000C942A000C9447000C9447000C94470071
:100010000C9447000C9447000C9447000C94470044
:100020000C9447000C9447000C9447000C94470034
:100030000C9447000C9447000C9447000C94470024
:100040000C9447000C9447000C9447000C94470014
:100050000C94470011241FBECFE5D4E0DEBFCDBF16
:1000600010E0A0E6B0E0EAEEF1E002C005900D92EB
:10007000A036B107D9F710E0A0E6B0E001C01D92AC
:10008000A036B107E1F70E94A6000C94F3000C948F
:10009000000082BB90989198929A8AEF90E0019725
:1000A000F1F7929808959C01207F307022BB9098C0
:1000B0009198929A2AEF30E0F9013197F1F79298EE
:1000C00044E0880F991F4A95E1F7907082BB9098A1
:1000D0009198929AC9010197F1F79298089582E058
:1000E00090E00E94530088E290E00E9453008CE070
:1000F00090E00E94530086E090E00E945300089533
:1001000082BB909A9198929A8AEF90E00197F1F7CA
:10011000929808959C01207F307022BB909A91980C
:10012000929A2AEF30E0F9013197F1F7929854E072
:10013000880F991F5A95E1F7907082BB909A919819
:10014000929AC9010197F1F7929808958FEF81BBB8
:100150000E946F0080E890E00E94530080E390E0EE
:100160000E948A0081E890E00E94530081E390E0C1
:100170000E948A0082E890E00E94530082E390E0AF
:100180000E948A0083E890E00E94530083E390E09D
:100190000E948A0084E890E00E94530084E390E08B
:1001A0000E948A0080EC90E00E94530085E390E07A
:1001B0000E948A0081EC90E00E94530086E390E068
:1001C0000E948A0082EC90E00E94530087E390E056
:1001D0000E948A0083E890E00E94530088E390E048
:0A01E0000E948A00B7CFF894FFCF09
:00000001FF
