:100000000C942A000C9434000C9434000C943400AA
:100010000C9434000C9434000C9434000C94340090
:100020000C9434000C9434000C9434000C94340080
:100030000C9434000C9434000C9434000C94340070
:100040000C9434000C9434000C9434000C94340060
:100050000C94340011241FBECFE5D4E0DEBFCDBF29
:100060000E9436000C9468000C9400001F938FEFE0
:1000700081BB87BB18E1B7EE29E130E0ACE373EC5C
:100080006EE751E84FEF12BBB8BB80EA9FE0F90181
:100090003197F1F70197D9F7A2BB78BB80EA9FE0CF
:1000A000F9013197F1F70197D9F762BB58BB80EAA4
:1000B0009FE0F9013197F1F70197D9F742BB18BAE0
:1000C00080EA9FE0F9013197F1F70197D9F7DBCF8B
:0400D000F894FFCFD2
:00000001FF
