:100000000C942A000C9434000C9434000C943400AA
:100010000C9434000C9434000C9434000C94340090
:100020000C9434000C9434000C9434000C94340080
:100030000C9434000C9434000C9434000C94340070
:100040000C9434000C9434000C9434000C94340060
:100050000C94340011241FBECFE5D4E0DEBFCDBF29
:100060000E9436000C94AA000C940000EF92FF92BC
:100070000F931F938FEF87BB89E183BF9BE3E92E2B
:1000800029E130E084E3F82E08E31EE2BCE2A6E2B8
:100090007EE16CE144EF51E0ECBE88E893E1F901C8
:1000A0003197F1F70197D9F7FCBE88E893E1F901A0
:1000B0003197F1F70197D9F70CBF88E893E1F9017F
:1000C0003197F1F70197D9F71CBF88E893E1F9015F
:1000D0003197F1F70197D9F7BCBF88E893E1F901AF
:1000E0003197F1F70197D9F7ACBF88E893E1F901AF
:1000F0003197F1F70197D9F77CBF88E893E1F901CF
:100100003197F1F70197D9F76CBF88E893E1F901CE
:100110003197F1F70197D9F780E090E08CBFFA01B1
:100120003197F1F70196E1E080309E07B9F788E852
:1001300093E1F9013197F1F70197D9F78FEF90E04B
:100140008CBFFA013197F1F70197EFEF8F3F9E07D0
:08015000B9F7A2CFF894FFCF2C
:00000001FF
