:100000000C942A000C943F000C943F000C943F0089
:100010000C943F000C943F000C943F000C943F0064
:100020000C943F000C943F000C943F000C943F0054
:100030000C943F000C943F000C943F000C943F0044
:100040000C943F000C943F000C943F000C943F0034
:100050000C943F0011241FBECFE5D4E0DEBFCDBF1E
:1000600010E0A0E6B0E0E8E6F3E002C005900D92F3
:10007000A037B107D9F70E9433010C94B2010C9458
:10008000000082BB90989198929A8AEF90E0019735
:10009000F1F7929808950F931F938C01807F9070D1
:1000A0000E94410084E0000F111F8A95E1F7C8010A
:1000B00090700E9441001F910F91089582E090E09E
:1000C0000E944B0088E290E00E944B008CE090E0A0
:1000D0000E944B0086E090E00E944B00089582BB96
:1000E000909A9198929A8AEF90E00197F1F79298FE
:1000F00008950F931F938C01807F90700E946F0072
:1001000094E0000F111F9A95E1F7C80190700E94CA
:100110006F001F910F910895CF93DF93EC0184E05E
:1001200090E00E944B000EC0CE016AE070E00E9499
:100130008B01C0960E947900CE016AE070E00E94B7
:100140008B01EB01209781F786E090E00E944B0045
:10015000DF91CF910895CF93DF93EC0103C090E03E
:100160000E94790089918823D1F7DF91CF9108957A
:1001700080E590E00E944B0084E090E00E947900CE
:100180008EE090E00E9479008FE190E00E9479007B
:100190008FE190E00E9479008FE190E00E94790069
:1001A00084E090E00E94790082E090E00E94790073
:1001B00080E090E00E94790081E090E00E944B0096
:1001C000089588E490E00E944B0084E090E00E9453
:1001D00079008EE090E00E9479008FE190E00E942B
:1001E00079008FE190E00E9479008FE190E00E9419
:1001F000790084E090E00E94790088E090E00E941D
:10020000790080E090E00E94790081E090E00E9417
:100210004B00089580E490E00E944B0084E090E061
:100220000E9479008EE090E00E9479008FE190E0DA
:100230000E9479008FE190E00E9479008FE190E0C8
:100240000E94790084E090E00E94790084E090E0D0
:100250000E94790080E090E00E94790081E090E0C7
:100260000E944B000895CF92DF92EF92FF920F937E
:100270001F93CF93DF938FEF81BB0E945E000E949C
:100280000A010E94E1000E94B80082E890E00E940A
:100290004B0080E090E00E94790088E893E129E13A
:1002A00030E0F9013197F1F70197D9F782E890E052
:1002B0000E944B0081E090E00E94790082E890E08B
:1002C0000E944B0082E090E00E947900C0E0D0E004
:1002D0003BECC32ED12C20E5E22E23ECF22E04EDD4
:1002E00010E3C6018C1B9D0B0E944B0080E090E048
:1002F0000E947900C7010197F1F780E690E00E9423
:10030000AB00C8010197F1F72196CC30D1054CF331
:10031000C0E0D0E0E6CF97FB092E07260AD077FD94
:1003200004D00CD006D000201AF4709561957F4F50
:100330000895F6F7909581959F4F0895AA1BBB1BD2
:1003400051E107C0AA1FBB1FA617B70710F0A61BD5
:10035000B70B881F991F5A95A9F780959095BC01F6
:08036000CD010895F894FFCFD0
:1003680020202020202020202020202020202000A5
:00000001FF
