:100000000C942A000C9434000C9434000C943400AA
:100010000C9434000C9434000C9434000C94340090
:100020000C9434000C9434000C9434000C94340080
:100030000C9434000C9434000C9434000C94340070
:100040000C9434000C9434000C9434000C94340060
:100050000C94340011241FBECFE5D4E0DEBFCDBF29
:100060000E9436000C945B000C9400008FEF87BB5D
:1000700080EF8ABB8FE08BBB7FE724ED30E369E044
:1000800058E041E07BBBC9010197F1F7C89903C073
:10009000C89BFECF68BBC99903C0C99BFECF58BBA4
:1000A000CA9903C0CA9BFECF48BBCB99EBCFCB9B71
:0A00B000FECF18BAE7CFF894FFCF97
:00000001FF
