:100000000C942A000C943F000C943F000C943F0089
:100010000C943F000C943F000C943F000C943F0064
:100020000C943F000C943F000C943F000C943F0054
:100030000C943F000C943F000C943F000C943F0044
:100040000C943F000C943F000C943F000C943F0034
:100050000C943F0011241FBECFE5D4E0DEBFCDBF1E
:1000600010E0A0E6B0E0E4EAF2E002C005900D92F4
:10007000A437B107D9F70E94C3000C9450010C9427
:100080000000806487B987ED86B9349BFECF349A2F
:1000900024B135B1C901089582BB90989198929A84
:1000A0008AEF90E00197F1F7929808950F931F93CC
:1000B0008C01807F90700E944C0084E0000F111F23
:1000C0008A95E1F7C80190700E944C001F910F9132
:1000D000089582E090E00E94560088E290E00E943D
:1000E00056008CE090E00E94560086E090E00E946E
:1000F0005600089582BB909A9198929A8AEF90E068
:100100000197F1F7929808950F931F938C01807FC8
:1001100090700E947A0094E0000F111F9A95E1F709
:10012000C80190700E947A001F910F910895CF939B
:10013000DF93EC0184E090E00E9456000EC0CE01F7
:100140006AE070E00E942901C0960E948400CE01FE
:100150006AE070E00E942901EB01209781F786E0B8
:1001600090E00E945600DF91CF910895CF93DF93E6
:10017000EC0103C090E00E94840089918823D1F7AC
:10018000DF91CF9108958F929F92AF92BF92CF92BD
:10019000DF92EF92FF920F931F93CF93DF938FEF36
:1001A00081BB0E94690081E890E00E94560080E6D1
:1001B00090E00E94B60080E197E229E130E0F90189
:1001C0003197F1F70197D9F755E0852E992493944B
:1001D0004AE0A42E32E0B32E24ECC22E29E0D22E27
:1001E000CCE7D2E98ABA9BBA81E090E00E94410054
:1001F0007C01AABABBBA82E090E00E9441008C0167
:1002000081E090E00E945600C6010197F1F780E876
:1002100090E00E9456008DE690E00E94B60080ECCF
:1002200090E00E94560080E790E00E94B60086E8C9
:1002300090E00E945600C7010E94970086EC90E073
:100240000E945600C8010E949700CE010197F1F765
:10025000C9CF97FB092E07260AD077FD04D00CD012
:1002600006D000201AF4709561957F4F0895F6F737
:10027000909581959F4F0895AA1BBB1B51E107C024
:10028000AA1FBB1FA617B70710F0A61BB70B881F26
:10029000991F5A95A9F780959095BC01CD010895B5
:0402A000F894FFCF00
:1002A400546F7563682053637265656E00583D0032
:0402B400593D0000B0
:00000001FF
