:100000000C9446000C9465000C9465000C946500FB
:100010000C9465000C9465000C9465000C946500CC
:100020000C9465000C9465000C9465000C946500BC
:100030000C9465000C9465000C9465000C946500AC
:100040000C9465000C9465000C9465000C9465009C
:100050000C9465000C9465000C9465000C9465008C
:100060000C9465000C9465000C9465000C9465007C
:100070000C9465000C9465000C9465000C9465006C
:100080000C9465000C9465000C94650011241FBE4F
:10009000CFEFD0E1DEBFCDBF11E0A0E0B1E0EEEFE9
:1000A000F0E000E00BBF02C007900D92A030B10756
:1000B000D9F711E0A0E0B1E001C01D92A030B10776
:1000C000E1F70E9467000C947D000C9400008FEF14
:1000D00081BB87BB8BE788BB8FE382BB28E833E11A
:1000E000C9010197F1F787E888BB84E482BBC901A5
:0E00F0000197F1F780E090E00895F894FFCFBB
:00000001FF
