:100000000C942A000C943F000C943F000C943F0089
:100010000C943F000C943F000C943F000C943F0064
:100020000C943F000C943F000C943F000C943F0054
:100030000C943F000C943F000C943F000C943F0044
:100040000C943F000C943F000C943F000C943F0034
:100050000C943F0011241FBECFE5D4E0DEBFCDBF1E
:1000600010E0A0E6B0E0ECEAF2E002C005900D92EC
:10007000A437B107D9F70E94C3000C9454010C9423
:100080000000806487B987ED86B9349BFECF349A2F
:1000900024B135B1C901089582BB90989198929A84
:1000A0008AEF90E00197F1F7929808950F931F93CC
:1000B0008C01807F90700E944C0084E0000F111F23
:1000C0008A95E1F7C80190700E944C001F910F9132
:1000D000089582E090E00E94560088E290E00E943D
:1000E00056008CE090E00E94560086E090E00E946E
:1000F0005600089582BB909A9198929A8AEF90E068
:100100000197F1F7929808950F931F938C01807FC8
:1001100090700E947A0094E0000F111F9A95E1F709
:10012000C80190700E947A001F910F910895CF939B
:10013000DF93EC0184E090E00E9456000EC0CE01F7
:100140006AE070E00E942D01C0960E948400CE01FA
:100150006AE070E00E942D01EB01209781F786E0B4
:1001600090E00E945600DF91CF910895CF93DF93E6
:10017000EC0103C090E00E94840089918823D1F7AC
:10018000DF91CF910895CF92DF92EF92FF920F937C
:100190001F93CF93DF9385E08ABB8FEF81BB81E014
:1001A0008BBB0E94690080EC90E00E94560080E6C4
:1001B00090E00E94B60088E893E129E130E0F9017F
:1001C0003197F1F70197D9F734EDC32E30E3D32EF1
:1001D00024EFE22E21E0F22EC9E1D0E081E090E0B0
:1001E0000E9441008C0181E090E00E945600C6010F
:1001F0000197F1F781E890E00E945600C8010E9443
:1002000097000E9DC0010F9D900D1E9D900D112415
:1002100060E074E00E942D01162F072F85E890E022
:100220000E945600812F902F6AE070E00E942D01FD
:10023000CB01C0960E948400812F902F6AE070E06D
:100240000E942D01C0960E94840088E893E1FE017F
:100250003197F1F70197D9F7C1CF97FB092E072600
:100260000AD077FD04D00CD006D000201AF4709587
:1002700061957F4F0895F6F7909581959F4F08956A
:10028000AA1BBB1B51E107C0AA1FBB1FA617B707BC
:1002900010F0A61BB70B881F991F5A95A9F78095D8
:0C02A0009095BC01CD010895F894FFCFAB
:1002AC0054656D70657261747572652073656E73DB
:0402BC006F7200005D
:00000001FF
