:100000000C942A000C9434000C9434000C943400AA
:100010000C9434000C9434000C9434000C94340090
:100020000C9434000C9434000C9434000C94340080
:100030000C9434000C9434000C9434000C94340070
:100040000C9434000C9434000C9434000C94340060
:100050000C94340011241FBECFE5D4E0DEBFCDBF29
:100060000E9436000C9465000C9400008FEF81BB59
:1000700087BB1ABA8FE08BBB60E124EC39E050E219
:1000800048E018BA12BAC89906C062BBC89BFECF36
:10009000C9010197F1F7C99906C052BBC99BFECFB0
:1000A000C9010197F1F7CA9906C048BBCA9BFECFA8
:1000B000C9010197F1F7CB99E4CF52BB48BBCB9B69
:0E00C000FECFC9010197F1F7DCCFF894FFCF16
:00000001FF
