:100000000C942A000C943F000C943F000C943F0089
:100010000C943F000C943F000C943F000C943F0064
:100020000C943F000C943F000C943F000C943F0054
:100030000C943F000C943F000C943F000C943F0044
:100040000C943F000C943F000C943F000C943F0034
:100050000C943F0011241FBECFE5D4E0DEBFCDBF1E
:1000600010E0A0E6B0E0E2E0F3E002C005900D92FF
:10007000A437B107D9F70E94C3000C947F010C94F8
:100080000000806487B987ED86B9349BFECF349A2F
:1000900024B135B1C901089582BB90989198929A84
:1000A0008AEF90E00197F1F7929808950F931F93CC
:1000B0008C01807F90700E944C0084E0000F111F23
:1000C0008A95E1F7C80190700E944C001F910F9132
:1000D000089582E090E00E94560088E290E00E943D
:1000E00056008CE090E00E94560086E090E00E946E
:1000F0005600089582BB909A9198929A8AEF90E068
:100100000197F1F7929808950F931F938C01807FC8
:1001100090700E947A0094E0000F111F9A95E1F709
:10012000C80190700E947A001F910F910895CF939B
:10013000DF93EC0184E090E00E9456000EC0CE01F7
:100140006AE070E00E945801C0960E948400CE01CF
:100150006AE070E00E945801EB01209781F786E089
:1001600090E00E945600DF91CF910895CF93DF93E6
:10017000EC0103C090E00E94840089918823D1F7AC
:10018000DF91CF9108955F926F927F928F929F92AD
:10019000AF92BF92CF92DF92EF92FF920F931F9395
:1001A000CF93DF931FEF11BB0E94690017BB81E85B
:1001B00090E00E94560080E690E00E94B60080E148
:1001C00097E229E130E0F9013197F1F70197D9F78A
:1001D000F5E05F2EBB24B394EAE06E2E72E0772E3A
:1001E00064ECC62E69E0D62E5CE7E52E52E9F52ECA
:1001F00046E0842E39E0932E28E0A22E5ABABBBAEC
:1002000081E090E00E944100EC016ABA7BBA82E092
:1002100090E00E9441008C0181E090E00E94560035
:10022000C6010197F1F780E890E00E9456008DE644
:1002300090E00E94B60080EC90E00E94560080E7BB
:1002400090E00E94B60086E890E00E945600CE0141
:100250000E94970086EC90E00E945600C8010E9420
:100260009700C7010197F1F781E0CE30D80724F459
:1002700088BAC7010197F1F7CF54D24024F098BA59
:10028000C7010197F1F781E00237180724F4B8BAE3
:10029000C7010197F1F718BAC7010197F1F70F5994
:1002A00012400CF4ABCFA8BAC7010197F1F7A6CF63
:1002B00097FB092E07260AD077FD04D00CD006D074
:1002C00000201AF4709561957F4F0895F6F7909588
:1002D00081959F4F0895AA1BBB1B51E107C0AA1F20
:1002E000BB1FA617B70710F0A61BB70B881F991FD7
:1002F0005A95A9F780959095BC01CD010895F89481
:02030000FFCF2D
:10030200746F7563682073637265656E00583D0093
:04031200593D000051
:00000001FF
